:030000000201D129
:0C01D100787FE4F6D8FD75812702021843
:100408000A0F3F065B4F666D7D077F6F0608FEFD8E
:10041800FBF7EFDF061B020305090500010E0002CA
:0604280023000001190091
:10046E00D288758910758D0B758BDC75A889D28E27
:08047E0012025D12013B80F83F
:1002CE007525FFE4F526F527E5A0F4602A12042F24
:1002DE00E5A0F4602285A025C3E5279414E52664E5
:1002EE008094805012E5A0F4600D0527E52770027A
:0E02FE00052612042F80E1AF25EF3395E0FEB8
:01030C0022CE
:10038000EF2409602524FC601A24FE600614702105
:10039000020006630EFFE50E6002C28EE50E7011CC
:1003A000D28E22E50E600A02001EE50E60031203E3
:0203B0004B22DE
:10013B00E50E70030201D075230075240AE4F52146
:10014B00F522E519B5220CE4B521087590FF7F0166
:10015B00FE8044E522640145216008E522640345E5
:10016B0021701CAF2274082FF8E6F590741B2FF842
:10017B00E6240FF8E64480F5807F017E008018AFFF
:10018B002274082FF8E6F590741B2FF8E6240FF86D
:10019B00E6F5807F017E001204330522E522700212
:1001AB000521C39406E521648094804095E52415D0
:1001BB002470021523D3E5249400E52364809480F6
:0601CB004003020148227E
:10025D0075230075240AE4F521F522E52264014594
:10026D00216008E522640345217016AF2274082F22
:10027D00F8E6F590741B2FF8E6240FF8E64480801D
:10028D0012AF2274082FF8E6F590741B2FF8E624B0
:10029D000FF8E6F58012042F0522E52270020521E4
:1002AD00C39406E5216480948040B0E52415247044
:1002BD00021523D3E5249400E523648094805096A1
:0102CD00220E
:1003DE00E51B6003B4010F051CE51CC3940A40190C
:1003EE00E4F51C051B22E51BB4020E051CE51CD30F
:0A03FE0094034005E4F51CF51B22F2
:10045300051EE51EC3940A4011E4F51E051DE51DA6
:0B04630094064006E4F51D1203DE22A3
:10000600E50E600F0519E519C39406400674FA2536
:0400160019F519229D
:10001E00E5191460521470030200C014700302003C
:10002E00D41470030200FD14700302011124056044
:10003E000302013A741B2519F8E614600C146023B0
:10004E002402600302013A0622741C2519F8E6C345
:10005E009404741B40302519F87602741C2519F887
:10006E00760322741B8045E51B6003B4011D741BCF
:10007E002519F806741B2519F8E6C3940A500302D5
:10008E00013AE4F6741A2519F80622E51B6402609B
:10009E000302013A741B2519F806741B2519F8E69C
:1000AE00D39403500302013AE4F6741A2519F8E4C6
:1000BE00F622741B2519F806741B2519F8E6C3944D
:1000CE00064069E4F622741B2519F806741B2519DF
:1000DE00F8E6C3940A4055E4F6741A2519F8067426
:1000EE001A2519F8E6C394064042E4F60203DE74BC
:1000FE001B2519F806741B2519F8E6C39406402C27
:10010E00E4F622741B2519F806741B2519F8E6C3AC
:10011E00940A4018E4F6741A2519F806741A25196B
:0D012E00F8E6C394064005E4F612045322DF
:10034B00741B2519F8E6FFC394014026EF940A505D
:10035B0021E519601B64016017E51964026011E562
:10036B00196403600BE51964046005E519B4050411
:05037B001622E4F62249
:04042F007F017E00CB
:10043300D3EF9400EE6480948040147DE87C03ED58
:0F0443001D70011CED4C70F7EF1F70E41E80E17F
:010452002287
:0300030002030DE8
:10030D00C0E0C0F0C083C082C0D075D000C000C0B6
:10031D0001C002C003C004C005C006C0071202CE52
:10032D00120380D007D006D005D004D003D002D060
:0E033D0001D000D0D0D082D083D0F0D0E032FA
:03001B000203B22B
:1003B200C0E0C0D075D000C000C28E758D0B758BA9
:1003C200DCD28E051AE51AC394104009751A00751D
:0C03D200190512001ED000D0D0D0E0327F
:1001DD0002046EE493A3F8E493A34003F68001F2C6
:1001ED0008DFF48029E493A3F85407240CC8C33323
:1001FD00C4540F4420C8834004F456800146F6DFF2
:10020D00E4800B0102040810204080900408E47E75
:10021D00019360BCA3FF543F30E509541FFEE493E6
:10022D00A360010ECF54C025E060A840B8E493A3AD
:10023D00FAE493A3F8E493A3C8C582C8CAC583CAD8
:10024D00F0A3C8C582C8CAC583CADFE9DEE780BE90
:01042E0000CD
:00000001FF
