:0300000002000EED
:0C000E00787FE4F6D8FD758108020055EB
:0300CB0001080029
:050003001200BC80FEAC
:0F00BC0075A8FF758920758A38758C38D28C220B
:03000B0002009A56
:10009A00C0E0C0D00508E508D39405400375080000
:1000AA00E508D394035004D2958002C295D0D0D0EB
:0200BA00E03232
:10001A00020003E493A3F8E493A34003F68001F2F9
:10002A0008DFF48029E493A3F85407240CC8C333E7
:10003A00C4540F4420C8834004F456800146F6DFB6
:10004A00E4800B01020408102040809000CBE47E7B
:10005A00019360BCA3FF543F30E509541FFEE493AB
:10006A00A360010ECF54C025E060A840B8E493A372
:10007A00FAE493A3F8E493A3C8C582C8CAC583CA9D
:10008A00F0A3C8C582C8CAC583CADFE9DEE780BE55
:0100CE000031
:00000001FF
