:0300000002000EED
:0C000E00787FE4F6D8FD758118020055DB
:1001D9000112000A083F065B4F666D7D077F6F02BB
:0701E90015FEFD02130500E5
:1001F100D28875A89F758920758CFE758AFED28C70
:0102010022DA
:10010D00E4F5181201F1E51375F00AA42514F5189C
:10011D00E4F51774152517F8E6F59074132517F8FF
:10012D00E62408F8E6F5801201920517E517C39449
:10013D000240E0E512B46403E4F512E518D395121C
:0A014D004004D2A580C0C2A580BC0A
:03000300020157A0
:10015700C0E0C0F0C083C082C0D075D000C000C06E
:1001670001C002C003C004C005C006C00712009A40
:10017700D007D006D005D004D003D002D001D000DC
:0B018700D0D0D082D083D0F0D0E03286
:03000B00020006EA
:03000600051232AE
:10009A0020A10B12019220A10530A1FDB2A020A23D
:1000AA001512019220A20F30A2FDA2A030A701B31F
:1000BA005004B2A0B2A720A32312019220A31D309C
:1000CA00A3FDC3E514648094874008E51364809413
:1000DA0089500674032514F5141201B620A42312BC
:1000EA00019220A41D30A4FDC3E5146480948550B8
:1000FA0008E51364809480400674FB2514F51412F5
:03010A0001B62219
:1001B600C3E5146480948A400874F62514F5140582
:1001C60013C3E514648094805008740A2514F5144A
:0301D600151322DC
:040192007F017E006B
:10019600D3EF9400EE6480948040147DE87C03EDF8
:0F01A6001D70011CED4C70F7EF1F70E41E80E11F
:0101B5002227
:10001A0002010DE493A3F8E493A34003F68001F2EE
:10002A0008DFF48029E493A3F85407240CC8C333E7
:10003A00C4540F4420C8834004F456800146F6DFB6
:10004A00E4800B01020408102040809001D9E47E6C
:10005A00019360BCA3FF543F30E509541FFEE493AB
:10006A00A360010ECF54C025E060A840B8E493A372
:10007A00FAE493A3F8E493A3C8C582C8CAC583CA9D
:10008A00F0A3C8C582C8CAC583CADFE9DEE780BE55
:0101F000000E
:00000001FF
