:03000000020026D5
:0C002600787FE4F6D8FD75810802006DBB
:03001B00010800D9
:1000D700758920758BFD758DFDE4F587D28E759832
:0600E70050D2AFD2AC22A2
:1000B2001200D73090FD2093FAE4FFFE0FBF00013B
:1000C2000EBE03F8BFE8F52093E9AF903093FD8FA1
:0500D20099C2B580DEBB
:03002300020003D5
:10000300C0E0C0D0859908E508B4F705209002B296
:0800130094C298D0D0D0E03275
:100032000200B2E493A3F8E493A34003F68001F232
:1000420008DFF48029E493A3F85407240CC8C333CF
:10005200C4540F4420C8834004F456800146F6DF9E
:10006200E4800B010204081020408090001BE47E13
:10007200019360BCA3FF543F30E509541FFEE49393
:10008200A360010ECF54C025E060A840B8E493A35A
:10009200FAE493A3F8E493A3C8C582C8CAC583CA85
:1000A200F0A3C8C582C8CAC583CADFE9DEE780BE3D
:01001E0000E1
:00000001FF
