:03000000020637BE
:0C063700787FE4F6D8FD75813F02044195
:10060C0025640041543234433032204E554D203D48
:01061C0000DD
:10044100E4FFFE1205DA7D647F011205F37F0112DC
:1004510005BA7F01120577EF3395E0752FFF7530EF
:100461000675310CF5328F337B007A007922120048
:100471005F7BFF7A06790FE4FDFCFFFE12051F7B0F
:10048100007A0079227D037C007F017E0012051F26
:0204910080FEEB
:07064300D29012064AD29189
:04064A007F03DFFE4D
:01064E002289
:0D061D00120643C29112064AC29002064A1C
:0D062A00C29112064A120643C29102064A0E
:0203ED00AD075A
:1003EF00E4FCEDFF3395E0FEEFA804088005C3336E
:1003FF00CE33CED8F930E704D2918002C2911206E3
:10040F004AD29012064AC29012064A0CBC08D3D2A6
:10041F009112064AD2903091110531E531D394C82B
:10042F0040F4C29012064A7F0022C29012064A7F01
:01043F0001BB
:010440002299
:10059900E4FEFDD29012064AED25E0FDA291E43376
:1005A900420512064AC29012064A0EBE08E5AF0578
:0105B900221F
:06051F008B2C8A2D892EB1
:10052500EF75F040A424802DFF120493AB2CAA2D67
:10053500A92E12035F6013052EE52E7002052D14FA
:0A054500F912035FFF1204D980E2EF
:01054F002289
:1005DA007F321204937F281204937F0C1204937FB4
:0905EA00061204937F0102049340
:020493008F2FA9
:1004950012061D7F7E1203EDE52F54F0F530433033
:1004A5000CAF301203ED7F011205BA5330FBAF30AC
:1004B5001203EDE52F540FC454F0F53043300CAF63
:1004C500301203ED7F011205BA5330FBAF30120332
:0404D500ED02062A04
:0204D9008F2F63
:1004DB0012061D7F7E1203EDE52F54F0F5304330ED
:1004EB000DAF301203ED7F011205BA5330FBAF3065
:1004FB001203EDE52F540FC454F0F53043300DAF1C
:10050B00301203ED7F011205BA5330FBAF301203EB
:04051B00ED02062ABD
:1005BA00E4FEEEFDEFFB3395E0FAD3EB9D7480F891
:0F05CA006A98400B7D667C03DCFEDDFA0E80E351
:0105D90022FF
:1005F3008F2C8D2D12061D7FA01203EDAF2C12033D
:09060300EDAF2D1203ED02062AF1
:020577008F2CC7
:1005790012061D7FA01203EDAF2C1203ED12061D0A
:0F0589007FA11203ED1205998F2D12062AAF2DB7
:010598002240
:10035F00BB010689828A83E0225002E722BBFE029C
:09036F00E32289828A83E49322CF
:10000300E53B242FF8E6053B22782C300702782FB6
:10001300E475F0011203B702035F2000EB7F2ED2D9
:10002300008018EF540F2490D43440D4FF30040BD5
:10003300EF24BFB41A0050032461FFE53C600215AE
:100043003C053FE53F7002053E30070D782CE47513
:10005300F0011203B7EF0203A50205507403D207A0
:100063008003E4C207F53B8B2C8A2D892EE4F53CF3
:10007300F53EF53FE53C60077F2012003E80F575B5
:100083003DFFC201C200C202C203C205C206C208CA
:1000930012000CFF700D3007057F0012004FAF3FB9
:1000A300AE3E22B4255FC2D5C20412000CFF24D099
:1000B300B40A00501A75F00A783C30D50508B6FF2B
:1000C3000106C6A426F620D5047002D20380D924E3
:1000D300CFB41A00EF5004C2E5D20402024FD2019A
:1000E30080C6D20080C0D20280BCD2D580BAD205ED
:1000F30080B47F2012003E2002077401B53C00400B
:10010300F1120003FF12003E020077D208D20680EC
:1001130095120003FB120003FA120003F94A4B7015
:100123000679207A037BFF20022EE53C602A7E00BD
:100133008E8275830012037860060EEE653D70F0C3
:10014300C2D5EBC0E0EAC0E0E9C0E0EE120296D00F
:10015300E0F9D0E0FAD0E0FB12035FFF60AAEBC046
:10016300E0EAC0E0E9C0E012003ED0E02401F9D0AB
:10017300E03400FAD0E0FBE53D0460DCD53DD980F6
:10018300877BFF7A027992D202809C791080027970
:1001930008C206C2088008D2D5790A8004790AC247
:1001A300D5E53D047002F53DE4FAFDFEFF120003C0
:1001B300FC7B08200113120003FD7B1030000A12A0
:1001C3000003FE120003FF7B20EC3382D592D5504F
:1001D30013C3E43000069FFFE49EFEE42001039D69
:1001E300FDE49CFCE4CBF8C201EC700CCFCECDCC8B
:1001F300E824F8F870F38017C3EF33FFEE33FEED16
:1002030033FDEC33FCEB33FB994002FB0FD8E9EBF6
:10021300300105F8D0E0C448B201C0E00AEC4D4E0D
:100223004F78207B0070C2EAB53D0040BCC0E012AD
:100233000298D0F0D0E0200104C4C0E0C4B201C0F1
:10024300F0120027D0F0D5F0EB0200771203C701BC
:100253001453018E5800E54C00E14201924F019A7C
:0F02630044019A4900FA4301A0550184460184E1
:100272004501844703405000E92D00ED2E01102B6B
:1002820000F123010E2003292A00A94800000108D9
:100292003F3F3F00790AA2D5200314300509B91067
:1002A200020404B9080104A2D52006025001042068
:1002B20002689202B53C005034C0E07F203003193E
:1002C2007F30A20272067205500F1202EFC202C202
:1002D20006C205C2087F30800F300503E9C0E01274
:1002E200003E300503D0E0F9D0E0B53CCC30051734
:1002F2007F30B9100C12003E7F583004077F78809F
:1003020003B9080312003E3002057F2D02003E7F32
:10031200202008F87F2B2006F322920280CF286E3D
:10032200756C6C2900D2011200033001F8C2017809
:100332003C30D50108F60200A92D5043495812005D
:10034200032403B405004001E490033B9312002F01
:0D035200743A12002FD203753C0402018E94
:10037800BB010CE58229F582E5833AF583E022503A
:1003880006E92582F8E622BBFE06E92582F8E22284
:0D039800E58229F582E5833AF583E493229E
:1003A500BB010689828A83F0225002F722BBFE0137
:0203B500F32231
:1003B700FAE6FB0808E6F925F0F618E6CA3AF62247
:1003C700D083D082F8E4937012740193700DA3A3C5
:1003D70093F8740193F5828883E4737402936860D9
:0603E700EFA3A3A380DFD9
:10055000EFB40A07740D12055B740A309811A8995C
:10056000B8130CC2983098FDA899C298B811F6300B
:0705700099FDC299F59922E3
:00000001FF
