:030000000204EB0C
:0C04EB00787FE4F6D8FD7581470204DC40
:0304F70025640079
:0F04DC007BFF7A0479F77D107C2712035F80FE87
:0304FA0025640076
:0A035F008B228A2389248C258D2629
:100369001204C6E4FFFE0FBF00010EBE03F8BFE88A
:10037900F5AB22AA23A9241203F1FF606A64257050
:100389004590000112040A6464703BE92402F9E40F
:100399003A8B27F52889297537FF7538047539FA95
:1003A90085253A85263B7B007A00792A12005F7BF6
:1003B900007A00792AE4FDFC12035F85272285284B
:1003C9002385292480ABAB220524E524AA237002C6
:1003D900052314F91203F1F5993099FDC2997F6447
:0703E9007E001204A6808AC9
:0103F00022EA
:1004A600D3EF9400EE6480948040147DE87C03EDE5
:0F04B6001D70011CED4C70F7EF1F70E41E80E10C
:0104C5002214
:1004C600758920758BFD758DFDE4F587759850D27D
:0604D600AFD2ACD28E2271
:1003F100BB010689828A83E0225002E722BBFE020A
:09040100E32289828A83E493223C
:10040A00BB010CE58229F582E5833AF583E02250A7
:10041A0006E92582F8E622BBFE06E92582F8E222F1
:0D042A00E58229F582E5833AF583E493220B
:10000300E5432437F8E6054322783430070278378E
:10001300E475F0011204490203F12000EB7F2ED2B4
:10002300008018EF540F2490D43440D4FF30040BD5
:10003300EF24BFB41A0050032461FFE544600215A6
:10004300440547E5477002054630070D7834E475EB
:10005300F001120449EF02043702047F7403D2074C
:100063008003E4C207F5438B348A358936E4F544CB
:10007300F546F547E54460077F2012003E80F5759D
:1000830045FFC201C200C202C203C205C206C208C2
:1000930012000CFF700D3007057F0012004FAF47B1
:1000A300AE4622B4255FC2D5C20412000CFF24D091
:1000B300B40A00501A75F00A784430D50508B6FF23
:1000C3000106C6A426F620D5047002D20380D924E3
:1000D300CFB41A00EF5004C2E5D20402024FD2019A
:1000E30080C6D20080C0D20280BCD2D580BAD205ED
:1000F30080B47F2012003E2002077401B544004003
:10010300F1120003FF12003E020077D208D20680EC
:1001130095120003FB120003FA120003F94A4B7015
:100123000679207A037BFF20022EE544602A7E00B5
:100133008E8275830012040A60060EEE654570F028
:10014300C2D5EBC0E0EAC0E0E9C0E0EE120296D00F
:10015300E0F9D0E0FAD0E0FB1203F1FF60AAEBC0B4
:10016300E0EAC0E0E9C0E012003ED0E02401F9D0AB
:10017300E03400FAD0E0FBE5450460DCD545D980E6
:10018300877BFF7A027992D202809C791080027970
:1001930008C206C2088008D2D5790A8004790AC247
:1001A300D5E545047002F545E4FAFDFEFF120003B0
:1001B300FC7B08200113120003FD7B1030000A12A0
:1001C3000003FE120003FF7B20EC3382D592D5504F
:1001D30013C3E43000069FFFE49EFEE42001039D69
:1001E300FDE49CFCE4CBF8C201EC700CCFCECDCC8B
:1001F300E824F8F870F38017C3EF33FFEE33FEED16
:1002030033FDEC33FCEB33FB994002FB0FD8E9EBF6
:10021300300105F8D0E0C448B201C0E00AEC4D4E0D
:100223004F78207B0070C2EAB5450040BCC0E012A5
:100233000298D0F0D0E0200104C4C0E0C4B201C0F1
:10024300F0120027D0F0D5F0EB0200771204590129
:100253001453018E5800E54C00E14201924F019A7C
:0F02630044019A4900FA4301A0550184460184E1
:100272004501844703405000E92D00ED2E01102B6B
:1002820000F123010E2003292A00A94800000108D9
:100292003F3F3F00790AA2D5200314300509B91067
:1002A200020404B9080104A2D52006025001042068
:1002B20002689202B544005034C0E07F2030031936
:1002C2007F30A20272067205500F1202EFC202C202
:1002D20006C205C2087F30800F300503E9C0E01274
:1002E200003E300503D0E0F9D0E0B544CC3005172C
:1002F2007F30B9100C12003E7F583004077F78809F
:1003020003B9080312003E3002057F2D02003E7F32
:10031200202008F87F2B2006F322920280CF286E3D
:10032200756C6C2900D2011200033001F8C2017809
:100332004430D50108F60200A92D50434958120055
:10034200032403B405004001E490033B9312002F01
:0D035200743A12002FD20375440402018E8C
:10043700BB010689828A83F0225002F722BBFE01A4
:02044700F3229E
:10044900FAE6FB0808E6F925F0F618E6CA3AF622B4
:10045900D083D082F8E4937012740193700DA3A332
:1004690093F8740193F5828883E473740293686046
:06047900EFA3A3A380DF46
:10047F00EFB40A07740D12048A740A309811A89900
:10048F00B8130CC2983098FDA899C298B811F630DD
:07049F0099FDC299F59922B5
:00000001FF
