:0300000002008F6C
:0C008F00787FE4F6D8FD7581080200A718
:0200A70080FED9
:07009B00D2901200A2D291E5
:0400A2007F03DFFEFB
:0100A6002237
:0D00750012009BC2911200A2C2900200A2D4
:0D008200C2911200A212009BC2910200A2C6
:02000300AD0747
:10000500E4FCEDFF3395E0FEEFA804088005C3335B
:10001500CE33CED8F930E704D2918002C2911200D6
:10002500A2D2901200A2C2901200A20CBC08D3D298
:1000350091D2903091110508E508D394C840F4C2D7
:0E004500901200A27F0022C2901200A27F0142
:01005300228A
:10005400E4FEFDD2901200A2ED25E0FDA291E4336E
:1000640042051200A2C2901200A20EBE08E5AF051E
:010074002269
:00000001FF
