:030000000201F802
:0C01F800787FE4F6D8FD75811102011833
:10017D004C59582069732053422121005468616EF7
:09018D006B20796F75212121001E
:100118001201967BFF7A01797DE4FDFCFFFE120057
:10012800DA7BFF7A0179897D037C007F017E0012EA
:0401380000DA80FE6B
:0E00DA008E088F098C0A8D0B8B0C8A0D890EF7
:1000E800120196E50975F040A42480250BFF120043
:1000F80054AB0CAA0DA90E1201AF6013050EE50E44
:0F0108007002050D14F91201AFFF12009780E28B
:0101170022C5
:100196007F321200547F281200547F0C1200547FC5
:0901A600061200547F010200540E
:020054008F0F0C
:100056001201DE7F7E120003E50F54F0F510431007
:100066000CAF101200037F0112015D5310FBAF109D
:10007600120003E50F540FC454F0F51043100CAFF3
:10008600101200037F0112015D5310FBAF10020036
:010096000366
:020097008F0FC9
:100099001201DE7F7E120003E50F54F0F5104310C4
:1000A9000DAF101200037F0112015D5310FBAF1059
:1000B900120003E50F540FC454F0F51043100DAFAF
:1000C900101200037F0112015D5310FBAF100200F3
:0100D9000323
:10015D00E4FEEEFDEFFB3395E0FAD3EB9D7480F8F2
:0F016D006A98400B7D667C03DCFEDDFA0E80E3B2
:01017C002260
:07020400D29012020BD2910F
:04020B007F03DFFE90
:01020F0022CC
:0D01DE00120204C29112020BC29002020B29
:0D01EB00C29112020B120204C29102020B1B
:02000300AD0747
:10000500E4FCEDFF3395E0FEEFA804088005C3335B
:10001500CE33CED8F930E704D2918002C2911202D4
:100025000BD29012020BC29012020B0CBC08D3D259
:1000350091D2903091110511E511D394C840F4C2C5
:0E0045009012020B7F0022C29012020B7F016C
:01005300228A
:10013C00E4FEFDD29012020BED25E0FDA291E4331A
:10014C00420512020BC29012020B0EBE08E5AF055F
:01015C002280
:1001C800758920758BFD758DFDE4F587D28E759840
:0601D80050D2AFD2AC22B0
:1001AF00BB010689828A83E0225002E722BBFE024E
:0901BF00E32289828A83E4932281
:00000001FF
